{
  "abi": [
    {
      "inputs": [
        {
          "internalType": "address[]",
          "name": "addresses",
          "type": "address[]"
        }
      ],
      "name": "getContractAddresses",
      "outputs": [
        {
          "internalType": "address[]",
          "name": "",
          "type": "address[]"
        }
      ],
      "stateMutability": "view",
      "type": "function"
    }
  ],
  "devdoc": {
    "kind": "dev",
    "methods": {},
    "version": 1
  },
  "evm": {
    "assembly": "    /* \"AddressValidator.sol\":65:986  contract ContractAddressChecker {... */\n  mstore(0x40, 0x80)\n  callvalue\n  dup1\n  iszero\n  tag_1\n  jumpi\n  0x00\n  dup1\n  revert\ntag_1:\n  pop\n  dataSize(sub_0)\n  dup1\n  dataOffset(sub_0)\n  0x00\n  codecopy\n  0x00\n  return\nstop\n\nsub_0: assembly {\n        /* \"AddressValidator.sol\":65:986  contract ContractAddressChecker {... */\n      mstore(0x40, 0x80)\n      callvalue\n      dup1\n      iszero\n      tag_1\n      jumpi\n      0x00\n      dup1\n      revert\n    tag_1:\n      pop\n      jumpi(tag_2, lt(calldatasize, 0x04))\n      shr(0xe0, calldataload(0x00))\n      dup1\n      0x50c958ae\n      eq\n      tag_3\n      jumpi\n    tag_2:\n      0x00\n      dup1\n      revert\n        /* \"AddressValidator.sol\":305:984  function getContractAddresses(address[] memory addresses) public view returns (address[] memory) {... */\n    tag_3:\n      tag_4\n      tag_5\n      calldatasize\n      0x04\n      tag_6\n      jump\t// in\n    tag_5:\n      tag_7\n      jump\t// in\n    tag_4:\n      mload(0x40)\n      tag_8\n      swap2\n      swap1\n      tag_9\n      jump\t// in\n    tag_8:\n      mload(0x40)\n      dup1\n      swap2\n      sub\n      swap1\n      return\n    tag_7:\n        /* \"AddressValidator.sol\":384:400  address[] memory */\n      0x60\n        /* \"AddressValidator.sol\":412:433  uint256 contractCount */\n      0x00\n        /* \"AddressValidator.sol\":452:461  uint256 i */\n      dup1\n        /* \"AddressValidator.sol\":447:596  for (uint256 i = 0; i < addresses.length; i++) {... */\n    tag_11:\n        /* \"AddressValidator.sol\":471:480  addresses */\n      dup4\n        /* \"AddressValidator.sol\":471:487  addresses.length */\n      mload\n        /* \"AddressValidator.sol\":467:468  i */\n      dup2\n        /* \"AddressValidator.sol\":467:487  i < addresses.length */\n      lt\n        /* \"AddressValidator.sol\":447:596  for (uint256 i = 0; i < addresses.length; i++) {... */\n      iszero\n      tag_12\n      jumpi\n        /* \"AddressValidator.sol\":512:536  isContract(addresses[i]) */\n      tag_14\n        /* \"AddressValidator.sol\":523:532  addresses */\n      dup5\n        /* \"AddressValidator.sol\":533:534  i */\n      dup3\n        /* \"AddressValidator.sol\":523:535  addresses[i] */\n      dup2\n      mload\n      dup2\n      lt\n      tag_16\n      jumpi\n      tag_16\n      tag_17\n      jump\t// in\n    tag_16:\n      0x20\n      mul\n      0x20\n      add\n      add\n      mload\n        /* \"AddressValidator.sol\":233:254  extcodesize(_address) */\n      extcodesize\n        /* \"AddressValidator.sol\":280:288  size > 0 */\n      iszero\n      iszero\n      swap1\n        /* \"AddressValidator.sol\":103:295  function isContract(address _address) internal view returns (bool) {... */\n      jump\n        /* \"AddressValidator.sol\":512:536  isContract(addresses[i]) */\n    tag_14:\n        /* \"AddressValidator.sol\":508:586  if (isContract(addresses[i])) {... */\n      iszero\n      tag_19\n      jumpi\n        /* \"AddressValidator.sol\":556:571  contractCount++ */\n      dup2\n      tag_20\n      dup2\n      tag_21\n      jump\t// in\n    tag_20:\n      swap3\n      pop\n      pop\n        /* \"AddressValidator.sol\":508:586  if (isContract(addresses[i])) {... */\n    tag_19:\n        /* \"AddressValidator.sol\":489:492  i++ */\n      dup1\n      tag_22\n      dup2\n      tag_21\n      jump\t// in\n    tag_22:\n      swap2\n      pop\n      pop\n        /* \"AddressValidator.sol\":447:596  for (uint256 i = 0; i < addresses.length; i++) {... */\n      jump(tag_11)\n    tag_12:\n      pop\n        /* \"AddressValidator.sol\":614:648  address[] memory contractAddresses */\n      0x00\n        /* \"AddressValidator.sol\":665:678  contractCount */\n      dup2\n        /* \"AddressValidator.sol\":651:679  new address[](contractCount) */\n      0xffffffffffffffff\n      dup2\n      gt\n      iszero\n      tag_24\n      jumpi\n      tag_24\n      tag_25\n      jump\t// in\n    tag_24:\n      mload(0x40)\n      swap1\n      dup1\n      dup3\n      mstore\n      dup1\n      0x20\n      mul\n      0x20\n      add\n      dup3\n      add\n      0x40\n      mstore\n      dup1\n      iszero\n      tag_26\n      jumpi\n      dup2\n      0x20\n      add\n      0x20\n      dup3\n      mul\n      dup1\n      calldatasize\n      dup4\n      calldatacopy\n      add\n      swap1\n      pop\n    tag_26:\n      pop\n        /* \"AddressValidator.sol\":614:679  address[] memory contractAddresses = new address[](contractCount) */\n      swap1\n      pop\n        /* \"AddressValidator.sol\":689:709  uint256 currentIndex */\n      0x00\n        /* \"AddressValidator.sol\":728:737  uint256 i */\n      dup1\n        /* \"AddressValidator.sol\":723:935  for (uint256 i = 0; i < addresses.length; i++) {... */\n    tag_27:\n        /* \"AddressValidator.sol\":747:756  addresses */\n      dup6\n        /* \"AddressValidator.sol\":747:763  addresses.length */\n      mload\n        /* \"AddressValidator.sol\":743:744  i */\n      dup2\n        /* \"AddressValidator.sol\":743:763  i < addresses.length */\n      lt\n        /* \"AddressValidator.sol\":723:935  for (uint256 i = 0; i < addresses.length; i++) {... */\n      iszero\n      tag_28\n      jumpi\n        /* \"AddressValidator.sol\":788:812  isContract(addresses[i]) */\n      tag_30\n        /* \"AddressValidator.sol\":799:808  addresses */\n      dup7\n        /* \"AddressValidator.sol\":809:810  i */\n      dup3\n        /* \"AddressValidator.sol\":799:811  addresses[i] */\n      dup2\n      mload\n      dup2\n      lt\n      tag_16\n      jumpi\n      tag_16\n      tag_17\n      jump\t// in\n        /* \"AddressValidator.sol\":788:812  isContract(addresses[i]) */\n    tag_30:\n        /* \"AddressValidator.sol\":784:925  if (isContract(addresses[i])) {... */\n      iszero\n      tag_33\n      jumpi\n        /* \"AddressValidator.sol\":866:875  addresses */\n      dup6\n        /* \"AddressValidator.sol\":876:877  i */\n      dup2\n        /* \"AddressValidator.sol\":866:878  addresses[i] */\n      dup2\n      mload\n      dup2\n      lt\n      tag_35\n      jumpi\n      tag_35\n      tag_17\n      jump\t// in\n    tag_35:\n      0x20\n      mul\n      0x20\n      add\n      add\n      mload\n        /* \"AddressValidator.sol\":832:849  contractAddresses */\n      dup4\n        /* \"AddressValidator.sol\":850:862  currentIndex */\n      dup4\n        /* \"AddressValidator.sol\":832:863  contractAddresses[currentIndex] */\n      dup2\n      mload\n      dup2\n      lt\n      tag_37\n      jumpi\n      tag_37\n      tag_17\n      jump\t// in\n    tag_37:\n        /* \"AddressValidator.sol\":832:878  contractAddresses[currentIndex] = addresses[i] */\n      0xffffffffffffffffffffffffffffffffffffffff\n      swap1\n      swap3\n      and\n        /* \"AddressValidator.sol\":832:863  contractAddresses[currentIndex] */\n      0x20\n      swap3\n      dup4\n      mul\n      swap2\n      swap1\n      swap2\n      add\n      swap1\n      swap2\n      add\n        /* \"AddressValidator.sol\":832:878  contractAddresses[currentIndex] = addresses[i] */\n      mstore\n        /* \"AddressValidator.sol\":896:910  currentIndex++ */\n      dup2\n      tag_38\n      dup2\n      tag_21\n      jump\t// in\n    tag_38:\n      swap3\n      pop\n      pop\n        /* \"AddressValidator.sol\":784:925  if (isContract(addresses[i])) {... */\n    tag_33:\n        /* \"AddressValidator.sol\":765:768  i++ */\n      dup1\n      tag_39\n      dup2\n      tag_21\n      jump\t// in\n    tag_39:\n      swap2\n      pop\n      pop\n        /* \"AddressValidator.sol\":723:935  for (uint256 i = 0; i < addresses.length; i++) {... */\n      jump(tag_27)\n    tag_28:\n      pop\n        /* \"AddressValidator.sol\":960:977  contractAddresses */\n      swap1\n      swap5\n        /* \"AddressValidator.sol\":305:984  function getContractAddresses(address[] memory addresses) public view returns (address[] memory) {... */\n      swap4\n      pop\n      pop\n      pop\n      pop\n      jump\t// out\n        /* \"#utility.yul\":14:141   */\n    tag_25:\n        /* \"#utility.yul\":75:85   */\n      0x4e487b71\n        /* \"#utility.yul\":70:73   */\n      0xe0\n        /* \"#utility.yul\":66:86   */\n      shl\n        /* \"#utility.yul\":63:64   */\n      0x00\n        /* \"#utility.yul\":56:87   */\n      mstore\n        /* \"#utility.yul\":106:110   */\n      0x41\n        /* \"#utility.yul\":103:104   */\n      0x04\n        /* \"#utility.yul\":96:111   */\n      mstore\n        /* \"#utility.yul\":130:134   */\n      0x24\n        /* \"#utility.yul\":127:128   */\n      0x00\n        /* \"#utility.yul\":120:135   */\n      revert\n        /* \"#utility.yul\":146:342   */\n    tag_41:\n        /* \"#utility.yul\":214:234   */\n      dup1\n      calldataload\n        /* \"#utility.yul\":274:316   */\n      0xffffffffffffffffffffffffffffffffffffffff\n        /* \"#utility.yul\":263:317   */\n      dup2\n      and\n        /* \"#utility.yul\":253:318   */\n      dup2\n      eq\n        /* \"#utility.yul\":243:336   */\n      tag_45\n      jumpi\n        /* \"#utility.yul\":332:333   */\n      0x00\n        /* \"#utility.yul\":329:330   */\n      dup1\n        /* \"#utility.yul\":322:334   */\n      revert\n        /* \"#utility.yul\":243:336   */\n    tag_45:\n        /* \"#utility.yul\":146:342   */\n      swap2\n      swap1\n      pop\n      jump\t// out\n        /* \"#utility.yul\":347:1468   */\n    tag_6:\n        /* \"#utility.yul\":431:437   */\n      0x00\n        /* \"#utility.yul\":462:464   */\n      0x20\n        /* \"#utility.yul\":505:507   */\n      dup1\n        /* \"#utility.yul\":493:502   */\n      dup4\n        /* \"#utility.yul\":484:491   */\n      dup6\n        /* \"#utility.yul\":480:503   */\n      sub\n        /* \"#utility.yul\":476:508   */\n      slt\n        /* \"#utility.yul\":473:525   */\n      iszero\n      tag_47\n      jumpi\n        /* \"#utility.yul\":521:522   */\n      0x00\n        /* \"#utility.yul\":518:519   */\n      dup1\n        /* \"#utility.yul\":511:523   */\n      revert\n        /* \"#utility.yul\":473:525   */\n    tag_47:\n        /* \"#utility.yul\":561:570   */\n      dup3\n        /* \"#utility.yul\":548:571   */\n      calldataload\n        /* \"#utility.yul\":590:608   */\n      0xffffffffffffffff\n        /* \"#utility.yul\":631:633   */\n      dup1\n        /* \"#utility.yul\":623:629   */\n      dup3\n        /* \"#utility.yul\":620:634   */\n      gt\n        /* \"#utility.yul\":617:651   */\n      iszero\n      tag_48\n      jumpi\n        /* \"#utility.yul\":647:648   */\n      0x00\n        /* \"#utility.yul\":644:645   */\n      dup1\n        /* \"#utility.yul\":637:649   */\n      revert\n        /* \"#utility.yul\":617:651   */\n    tag_48:\n        /* \"#utility.yul\":685:691   */\n      dup2\n        /* \"#utility.yul\":674:683   */\n      dup6\n        /* \"#utility.yul\":670:692   */\n      add\n        /* \"#utility.yul\":660:692   */\n      swap2\n      pop\n        /* \"#utility.yul\":730:737   */\n      dup6\n        /* \"#utility.yul\":723:727   */\n      0x1f\n        /* \"#utility.yul\":719:721   */\n      dup4\n        /* \"#utility.yul\":715:728   */\n      add\n        /* \"#utility.yul\":711:738   */\n      slt\n        /* \"#utility.yul\":701:756   */\n      tag_49\n      jumpi\n        /* \"#utility.yul\":752:753   */\n      0x00\n        /* \"#utility.yul\":749:750   */\n      dup1\n        /* \"#utility.yul\":742:754   */\n      revert\n        /* \"#utility.yul\":701:756   */\n    tag_49:\n        /* \"#utility.yul\":788:790   */\n      dup2\n        /* \"#utility.yul\":775:791   */\n      calldataload\n        /* \"#utility.yul\":810:812   */\n      dup2\n        /* \"#utility.yul\":806:808   */\n      dup2\n        /* \"#utility.yul\":803:813   */\n      gt\n        /* \"#utility.yul\":800:836   */\n      iszero\n      tag_51\n      jumpi\n        /* \"#utility.yul\":816:834   */\n      tag_51\n      tag_25\n      jump\t// in\n    tag_51:\n        /* \"#utility.yul\":862:864   */\n      dup1\n        /* \"#utility.yul\":859:860   */\n      0x05\n        /* \"#utility.yul\":855:865   */\n      shl\n        /* \"#utility.yul\":894:896   */\n      0x40\n        /* \"#utility.yul\":888:897   */\n      mload\n        /* \"#utility.yul\":957:959   */\n      0x1f\n        /* \"#utility.yul\":953:960   */\n      not\n        /* \"#utility.yul\":948:950   */\n      0x3f\n        /* \"#utility.yul\":944:946   */\n      dup4\n        /* \"#utility.yul\":940:951   */\n      add\n        /* \"#utility.yul\":936:961   */\n      and\n        /* \"#utility.yul\":928:934   */\n      dup2\n        /* \"#utility.yul\":924:962   */\n      add\n        /* \"#utility.yul\":1012:1018   */\n      dup2\n        /* \"#utility.yul\":1000:1010   */\n      dup2\n        /* \"#utility.yul\":997:1019   */\n      lt\n        /* \"#utility.yul\":992:994   */\n      dup6\n        /* \"#utility.yul\":980:990   */\n      dup3\n        /* \"#utility.yul\":977:995   */\n      gt\n        /* \"#utility.yul\":974:1020   */\n      or\n        /* \"#utility.yul\":971:1043   */\n      iszero\n      tag_53\n      jumpi\n        /* \"#utility.yul\":1023:1041   */\n      tag_53\n      tag_25\n      jump\t// in\n    tag_53:\n        /* \"#utility.yul\":1059:1061   */\n      0x40\n        /* \"#utility.yul\":1052:1074   */\n      mstore\n        /* \"#utility.yul\":1109:1127   */\n      swap2\n      dup3\n      mstore\n        /* \"#utility.yul\":1143:1158   */\n      dup5\n      dup3\n      add\n      swap3\n      pop\n        /* \"#utility.yul\":1185:1196   */\n      dup4\n      dup2\n      add\n        /* \"#utility.yul\":1181:1201   */\n      dup6\n      add\n      swap2\n        /* \"#utility.yul\":1213:1232   */\n      dup9\n      dup4\n      gt\n        /* \"#utility.yul\":1210:1249   */\n      iszero\n      tag_54\n      jumpi\n        /* \"#utility.yul\":1245:1246   */\n      0x00\n        /* \"#utility.yul\":1242:1243   */\n      dup1\n        /* \"#utility.yul\":1235:1247   */\n      revert\n        /* \"#utility.yul\":1210:1249   */\n    tag_54:\n        /* \"#utility.yul\":1269:1280   */\n      swap4\n      dup6\n      add\n      swap4\n        /* \"#utility.yul\":1289:1437   */\n    tag_55:\n        /* \"#utility.yul\":1305:1311   */\n      dup3\n        /* \"#utility.yul\":1300:1303   */\n      dup6\n        /* \"#utility.yul\":1297:1312   */\n      lt\n        /* \"#utility.yul\":1289:1437   */\n      iszero\n      tag_57\n      jumpi\n        /* \"#utility.yul\":1371:1394   */\n      tag_58\n        /* \"#utility.yul\":1390:1393   */\n      dup6\n        /* \"#utility.yul\":1371:1394   */\n      tag_41\n      jump\t// in\n    tag_58:\n        /* \"#utility.yul\":1359:1395   */\n      dup5\n      mstore\n        /* \"#utility.yul\":1322:1334   */\n      swap4\n      dup6\n      add\n      swap4\n        /* \"#utility.yul\":1415:1427   */\n      swap3\n      dup6\n      add\n      swap3\n        /* \"#utility.yul\":1289:1437   */\n      jump(tag_55)\n    tag_57:\n        /* \"#utility.yul\":1456:1462   */\n      swap9\n        /* \"#utility.yul\":347:1468   */\n      swap8\n      pop\n      pop\n      pop\n      pop\n      pop\n      pop\n      pop\n      pop\n      jump\t// out\n        /* \"#utility.yul\":1473:2154   */\n    tag_9:\n        /* \"#utility.yul\":1644:1646   */\n      0x20\n        /* \"#utility.yul\":1696:1717   */\n      dup1\n      dup3\n      mstore\n        /* \"#utility.yul\":1766:1779   */\n      dup3\n      mload\n        /* \"#utility.yul\":1669:1687   */\n      dup3\n      dup3\n      add\n        /* \"#utility.yul\":1788:1810   */\n      dup2\n      swap1\n      mstore\n        /* \"#utility.yul\":1615:1619   */\n      0x00\n      swap2\n        /* \"#utility.yul\":1644:1646   */\n      swap1\n        /* \"#utility.yul\":1867:1882   */\n      dup5\n      dup3\n      add\n      swap1\n        /* \"#utility.yul\":1841:1843   */\n      0x40\n        /* \"#utility.yul\":1826:1844   */\n      dup6\n      add\n      swap1\n        /* \"#utility.yul\":1615:1619   */\n      dup5\n        /* \"#utility.yul\":1910:2128   */\n    tag_60:\n        /* \"#utility.yul\":1924:1930   */\n      dup2\n        /* \"#utility.yul\":1921:1922   */\n      dup2\n        /* \"#utility.yul\":1918:1931   */\n      lt\n        /* \"#utility.yul\":1910:2128   */\n      iszero\n      tag_62\n      jumpi\n        /* \"#utility.yul\":1989:2002   */\n      dup4\n      mload\n        /* \"#utility.yul\":2004:2046   */\n      0xffffffffffffffffffffffffffffffffffffffff\n        /* \"#utility.yul\":1985:2047   */\n      and\n        /* \"#utility.yul\":1973:2048   */\n      dup4\n      mstore\n        /* \"#utility.yul\":2103:2118   */\n      swap3\n      dup5\n      add\n      swap3\n        /* \"#utility.yul\":2068:2080   */\n      swap2\n      dup5\n      add\n      swap2\n        /* \"#utility.yul\":1946:1947   */\n      0x01\n        /* \"#utility.yul\":1939:1948   */\n      add\n        /* \"#utility.yul\":1910:2128   */\n      jump(tag_60)\n    tag_62:\n      pop\n        /* \"#utility.yul\":2145:2148   */\n      swap1\n      swap7\n        /* \"#utility.yul\":1473:2154   */\n      swap6\n      pop\n      pop\n      pop\n      pop\n      pop\n      pop\n      jump\t// out\n        /* \"#utility.yul\":2159:2286   */\n    tag_17:\n        /* \"#utility.yul\":2220:2230   */\n      0x4e487b71\n        /* \"#utility.yul\":2215:2218   */\n      0xe0\n        /* \"#utility.yul\":2211:2231   */\n      shl\n        /* \"#utility.yul\":2208:2209   */\n      0x00\n        /* \"#utility.yul\":2201:2232   */\n      mstore\n        /* \"#utility.yul\":2251:2255   */\n      0x32\n        /* \"#utility.yul\":2248:2249   */\n      0x04\n        /* \"#utility.yul\":2241:2256   */\n      mstore\n        /* \"#utility.yul\":2275:2279   */\n      0x24\n        /* \"#utility.yul\":2272:2273   */\n      0x00\n        /* \"#utility.yul\":2265:2280   */\n      revert\n        /* \"#utility.yul\":2291:2523   */\n    tag_21:\n        /* \"#utility.yul\":2330:2333   */\n      0x00\n        /* \"#utility.yul\":2351:2368   */\n      0x01\n      dup3\n      add\n        /* \"#utility.yul\":2348:2488   */\n      tag_65\n      jumpi\n        /* \"#utility.yul\":2410:2420   */\n      0x4e487b71\n        /* \"#utility.yul\":2405:2408   */\n      0xe0\n        /* \"#utility.yul\":2401:2421   */\n      shl\n        /* \"#utility.yul\":2398:2399   */\n      0x00\n        /* \"#utility.yul\":2391:2422   */\n      mstore\n        /* \"#utility.yul\":2445:2449   */\n      0x11\n        /* \"#utility.yul\":2442:2443   */\n      0x04\n        /* \"#utility.yul\":2435:2450   */\n      mstore\n        /* \"#utility.yul\":2473:2477   */\n      0x24\n        /* \"#utility.yul\":2470:2471   */\n      0x00\n        /* \"#utility.yul\":2463:2478   */\n      revert\n        /* \"#utility.yul\":2348:2488   */\n    tag_65:\n      pop\n        /* \"#utility.yul\":2515:2516   */\n      0x01\n        /* \"#utility.yul\":2504:2517   */\n      add\n      swap1\n        /* \"#utility.yul\":2291:2523   */\n      jump\t// out\n\n    auxdata: 0xa2646970667358221220243dcd55d82e52ba676120af9a85d80b8aeada9f3d50439a0256a2f7eec7dd7864736f6c63430008110033\n}\n",
    "bytecode": {
      "linkReferences": {},
      "object": "608060405234801561001057600080fd5b5061036b806100206000396000f3fe608060405234801561001057600080fd5b506004361061002b5760003560e01c806350c958ae14610030575b600080fd5b61004361003e3660046101d9565b610059565b604051610050919061029e565b60405180910390f35b60606000805b83518110156100b05761008b84828151811061007d5761007d6102f8565b60200260200101513b151590565b1561009e578161009a8161030e565b9250505b806100a88161030e565b91505061005f565b5060008167ffffffffffffffff8111156100cc576100cc61019a565b6040519080825280602002602001820160405280156100f5578160200160208202803683370190505b5090506000805b85518110156101905761011a86828151811061007d5761007d6102f8565b1561017e57858181518110610131576101316102f8565b602002602001015183838151811061014b5761014b6102f8565b73ffffffffffffffffffffffffffffffffffffffff909216602092830291909101909101528161017a8161030e565b9250505b806101888161030e565b9150506100fc565b5090949350505050565b634e487b7160e01b600052604160045260246000fd5b803573ffffffffffffffffffffffffffffffffffffffff811681146101d457600080fd5b919050565b600060208083850312156101ec57600080fd5b823567ffffffffffffffff8082111561020457600080fd5b818501915085601f83011261021857600080fd5b81358181111561022a5761022a61019a565b8060051b604051601f19603f8301168101818110858211171561024f5761024f61019a565b60405291825284820192508381018501918883111561026d57600080fd5b938501935b8285101561029257610283856101b0565b84529385019392850192610272565b98975050505050505050565b6020808252825182820181905260009190848201906040850190845b818110156102ec57835173ffffffffffffffffffffffffffffffffffffffff16835292840192918401916001016102ba565b50909695505050505050565b634e487b7160e01b600052603260045260246000fd5b60006001820161032e57634e487b7160e01b600052601160045260246000fd5b506001019056fea2646970667358221220243dcd55d82e52ba676120af9a85d80b8aeada9f3d50439a0256a2f7eec7dd7864736f6c63430008110033",
      "opcodes": "PUSH1 0x80 PUSH1 0x40 MSTORE CALLVALUE DUP1 ISZERO PUSH2 0x10 JUMPI PUSH1 0x0 DUP1 REVERT JUMPDEST POP PUSH2 0x36B DUP1 PUSH2 0x20 PUSH1 0x0 CODECOPY PUSH1 0x0 RETURN INVALID PUSH1 0x80 PUSH1 0x40 MSTORE CALLVALUE DUP1 ISZERO PUSH2 0x10 JUMPI PUSH1 0x0 DUP1 REVERT JUMPDEST POP PUSH1 0x4 CALLDATASIZE LT PUSH2 0x2B JUMPI PUSH1 0x0 CALLDATALOAD PUSH1 0xE0 SHR DUP1 PUSH4 0x50C958AE EQ PUSH2 0x30 JUMPI JUMPDEST PUSH1 0x0 DUP1 REVERT JUMPDEST PUSH2 0x43 PUSH2 0x3E CALLDATASIZE PUSH1 0x4 PUSH2 0x1D9 JUMP JUMPDEST PUSH2 0x59 JUMP JUMPDEST PUSH1 0x40 MLOAD PUSH2 0x50 SWAP2 SWAP1 PUSH2 0x29E JUMP JUMPDEST PUSH1 0x40 MLOAD DUP1 SWAP2 SUB SWAP1 RETURN JUMPDEST PUSH1 0x60 PUSH1 0x0 DUP1 JUMPDEST DUP4 MLOAD DUP2 LT ISZERO PUSH2 0xB0 JUMPI PUSH2 0x8B DUP5 DUP3 DUP2 MLOAD DUP2 LT PUSH2 0x7D JUMPI PUSH2 0x7D PUSH2 0x2F8 JUMP JUMPDEST PUSH1 0x20 MUL PUSH1 0x20 ADD ADD MLOAD EXTCODESIZE ISZERO ISZERO SWAP1 JUMP JUMPDEST ISZERO PUSH2 0x9E JUMPI DUP2 PUSH2 0x9A DUP2 PUSH2 0x30E JUMP JUMPDEST SWAP3 POP POP JUMPDEST DUP1 PUSH2 0xA8 DUP2 PUSH2 0x30E JUMP JUMPDEST SWAP2 POP POP PUSH2 0x5F JUMP JUMPDEST POP PUSH1 0x0 DUP2 PUSH8 0xFFFFFFFFFFFFFFFF DUP2 GT ISZERO PUSH2 0xCC JUMPI PUSH2 0xCC PUSH2 0x19A JUMP JUMPDEST PUSH1 0x40 MLOAD SWAP1 DUP1 DUP3 MSTORE DUP1 PUSH1 0x20 MUL PUSH1 0x20 ADD DUP3 ADD PUSH1 0x40 MSTORE DUP1 ISZERO PUSH2 0xF5 JUMPI DUP2 PUSH1 0x20 ADD PUSH1 0x20 DUP3 MUL DUP1 CALLDATASIZE DUP4 CALLDATACOPY ADD SWAP1 POP JUMPDEST POP SWAP1 POP PUSH1 0x0 DUP1 JUMPDEST DUP6 MLOAD DUP2 LT ISZERO PUSH2 0x190 JUMPI PUSH2 0x11A DUP7 DUP3 DUP2 MLOAD DUP2 LT PUSH2 0x7D JUMPI PUSH2 0x7D PUSH2 0x2F8 JUMP JUMPDEST ISZERO PUSH2 0x17E JUMPI DUP6 DUP2 DUP2 MLOAD DUP2 LT PUSH2 0x131 JUMPI PUSH2 0x131 PUSH2 0x2F8 JUMP JUMPDEST PUSH1 0x20 MUL PUSH1 0x20 ADD ADD MLOAD DUP4 DUP4 DUP2 MLOAD DUP2 LT PUSH2 0x14B JUMPI PUSH2 0x14B PUSH2 0x2F8 JUMP JUMPDEST PUSH20 0xFFFFFFFFFFFFFFFFFFFFFFFFFFFFFFFFFFFFFFFF SWAP1 SWAP3 AND PUSH1 0x20 SWAP3 DUP4 MUL SWAP2 SWAP1 SWAP2 ADD SWAP1 SWAP2 ADD MSTORE DUP2 PUSH2 0x17A DUP2 PUSH2 0x30E JUMP JUMPDEST SWAP3 POP POP JUMPDEST DUP1 PUSH2 0x188 DUP2 PUSH2 0x30E JUMP JUMPDEST SWAP2 POP POP PUSH2 0xFC JUMP JUMPDEST POP SWAP1 SWAP5 SWAP4 POP POP POP POP JUMP JUMPDEST PUSH4 0x4E487B71 PUSH1 0xE0 SHL PUSH1 0x0 MSTORE PUSH1 0x41 PUSH1 0x4 MSTORE PUSH1 0x24 PUSH1 0x0 REVERT JUMPDEST DUP1 CALLDATALOAD PUSH20 0xFFFFFFFFFFFFFFFFFFFFFFFFFFFFFFFFFFFFFFFF DUP2 AND DUP2 EQ PUSH2 0x1D4 JUMPI PUSH1 0x0 DUP1 REVERT JUMPDEST SWAP2 SWAP1 POP JUMP JUMPDEST PUSH1 0x0 PUSH1 0x20 DUP1 DUP4 DUP6 SUB SLT ISZERO PUSH2 0x1EC JUMPI PUSH1 0x0 DUP1 REVERT JUMPDEST DUP3 CALLDATALOAD PUSH8 0xFFFFFFFFFFFFFFFF DUP1 DUP3 GT ISZERO PUSH2 0x204 JUMPI PUSH1 0x0 DUP1 REVERT JUMPDEST DUP2 DUP6 ADD SWAP2 POP DUP6 PUSH1 0x1F DUP4 ADD SLT PUSH2 0x218 JUMPI PUSH1 0x0 DUP1 REVERT JUMPDEST DUP2 CALLDATALOAD DUP2 DUP2 GT ISZERO PUSH2 0x22A JUMPI PUSH2 0x22A PUSH2 0x19A JUMP JUMPDEST DUP1 PUSH1 0x5 SHL PUSH1 0x40 MLOAD PUSH1 0x1F NOT PUSH1 0x3F DUP4 ADD AND DUP2 ADD DUP2 DUP2 LT DUP6 DUP3 GT OR ISZERO PUSH2 0x24F JUMPI PUSH2 0x24F PUSH2 0x19A JUMP JUMPDEST PUSH1 0x40 MSTORE SWAP2 DUP3 MSTORE DUP5 DUP3 ADD SWAP3 POP DUP4 DUP2 ADD DUP6 ADD SWAP2 DUP9 DUP4 GT ISZERO PUSH2 0x26D JUMPI PUSH1 0x0 DUP1 REVERT JUMPDEST SWAP4 DUP6 ADD SWAP4 JUMPDEST DUP3 DUP6 LT ISZERO PUSH2 0x292 JUMPI PUSH2 0x283 DUP6 PUSH2 0x1B0 JUMP JUMPDEST DUP5 MSTORE SWAP4 DUP6 ADD SWAP4 SWAP3 DUP6 ADD SWAP3 PUSH2 0x272 JUMP JUMPDEST SWAP9 SWAP8 POP POP POP POP POP POP POP POP JUMP JUMPDEST PUSH1 0x20 DUP1 DUP3 MSTORE DUP3 MLOAD DUP3 DUP3 ADD DUP2 SWAP1 MSTORE PUSH1 0x0 SWAP2 SWAP1 DUP5 DUP3 ADD SWAP1 PUSH1 0x40 DUP6 ADD SWAP1 DUP5 JUMPDEST DUP2 DUP2 LT ISZERO PUSH2 0x2EC JUMPI DUP4 MLOAD PUSH20 0xFFFFFFFFFFFFFFFFFFFFFFFFFFFFFFFFFFFFFFFF AND DUP4 MSTORE SWAP3 DUP5 ADD SWAP3 SWAP2 DUP5 ADD SWAP2 PUSH1 0x1 ADD PUSH2 0x2BA JUMP JUMPDEST POP SWAP1 SWAP7 SWAP6 POP POP POP POP POP POP JUMP JUMPDEST PUSH4 0x4E487B71 PUSH1 0xE0 SHL PUSH1 0x0 MSTORE PUSH1 0x32 PUSH1 0x4 MSTORE PUSH1 0x24 PUSH1 0x0 REVERT JUMPDEST PUSH1 0x0 PUSH1 0x1 DUP3 ADD PUSH2 0x32E JUMPI PUSH4 0x4E487B71 PUSH1 0xE0 SHL PUSH1 0x0 MSTORE PUSH1 0x11 PUSH1 0x4 MSTORE PUSH1 0x24 PUSH1 0x0 REVERT JUMPDEST POP PUSH1 0x1 ADD SWAP1 JUMP INVALID LOG2 PUSH5 0x6970667358 0x22 SLT KECCAK256 0x24 RETURNDATASIZE 0xCD SSTORE 0xD8 0x2E MSTORE 0xBA PUSH8 0x6120AF9A85D80B8A 0xEA 0xDA SWAP16 RETURNDATASIZE POP NUMBER SWAP11 MUL JUMP LOG2 0xF7 0xEE 0xC7 0xDD PUSH25 0x64736F6C634300081100330000000000000000000000000000 "
    },
    "gasEstimates": {
      "creation": {
        "codeDepositCost": "175000",
        "executionCost": "220",
        "totalCost": "175220"
      },
      "external": {
        "getContractAddresses(address[])": "infinite"
      },
      "internal": {
        "isContract(address)": "infinite"
      }
    },
    "methodIdentifiers": {
      "getContractAddresses(address[])": "50c958ae"
    }
  },
  "storageLayout": {
    "storage": [],
    "types": null
  },
  "userdoc": {
    "kind": "user",
    "methods": {},
    "version": 1
  }
}